{
  "_format": "hh-sol-artifact-1",
  "contractName": "CarbonCoins",
  "sourceName": "contracts/CarbonCoins.sol",
  "abi": [
    {
      "inputs": [
        {
          "internalType": "address",
          "name": "userAdd",
          "type": "address"
        },
        {
          "internalType": "uint256",
          "name": "rewardAmount",
          "type": "uint256"
        }
      ],
      "name": "addReward",
      "outputs": [
        {
          "internalType": "uint256",
          "name": "",
          "type": "uint256"
        }
      ],
      "stateMutability": "nonpayable",
      "type": "function"
    },
    {
      "inputs": [
        {
          "internalType": "address",
          "name": "userAdd",
          "type": "address"
        }
      ],
      "name": "addUser",
      "outputs": [
        {
          "internalType": "uint256",
          "name": "",
          "type": "uint256"
        }
      ],
      "stateMutability": "nonpayable",
      "type": "function"
    },
    {
      "inputs": [],
      "name": "getAllData",
      "outputs": [
        {
          "components": [
            {
              "internalType": "address",
              "name": "userAddress",
              "type": "address"
            },
            {
              "internalType": "uint256",
              "name": "earnings",
              "type": "uint256"
            }
          ],
          "internalType": "struct CarbonCoins.leaderboardRecord[]",
          "name": "",
          "type": "tuple[]"
        }
      ],
      "stateMutability": "view",
      "type": "function"
    },
    {
      "inputs": [
        {
          "internalType": "address",
          "name": "userAdd",
          "type": "address"
        }
      ],
      "name": "getBalance",
      "outputs": [
        {
          "internalType": "uint256",
          "name": "",
          "type": "uint256"
        }
      ],
      "stateMutability": "view",
      "type": "function"
    },
    {
      "inputs": [
        {
          "internalType": "uint256",
          "name": "",
          "type": "uint256"
        }
      ],
      "name": "userAddress",
      "outputs": [
        {
          "internalType": "address",
          "name": "",
          "type": "address"
        }
      ],
      "stateMutability": "view",
      "type": "function"
    }
  ],
  "bytecode": "0x608060405234801561001057600080fd5b5061087e806100206000396000f3fe608060405234801561001057600080fd5b50600436106100575760003560e01c80632d10fa281461005c578063421b2d8b1461007a5780639674a0ac146100aa5780639feb8f50146100da578063f8b2cb4f1461010a575b600080fd5b61006461013a565b604051610071919061061a565b60405180910390f35b610094600480360381019061008f919061066d565b61028d565b6040516100a191906106a9565b60405180910390f35b6100c460048036038101906100bf91906106f0565b610346565b6040516100d1919061072c565b60405180910390f35b6100f460048036038101906100ef9190610747565b610385565b60405161010191906106a9565b60405180910390f35b610124600480360381019061011f919061066d565b610466565b60405161013191906106a9565b60405180910390f35b6060600060028054905067ffffffffffffffff81111561015d5761015c610787565b5b60405190808252806020026020018201604052801561019657816020015b6101836104b2565b81526020019060019003908161017b5790505b50905060005b600280549050811015610285576000600282815481106101bf576101be6107b6565b5b9060005260206000200160009054906101000a900473ffffffffffffffffffffffffffffffffffffffff16905060405180604001604052808273ffffffffffffffffffffffffffffffffffffffff168152602001600160008473ffffffffffffffffffffffffffffffffffffffff1673ffffffffffffffffffffffffffffffffffffffff1681526020019081526020016000206001015481525083838151811061026c5761026b6107b6565b5b602002602001018190525050808060010191505061019c565b508091505090565b60006040518060400160405280600081526020016000815250600160008473ffffffffffffffffffffffffffffffffffffffff1673ffffffffffffffffffffffffffffffffffffffff1681526020019081526020016000206000820151816000015560208201518160010155905050600160008373ffffffffffffffffffffffffffffffffffffffff1673ffffffffffffffffffffffffffffffffffffffff168152602001908152602001600020600001549050919050565b6002818154811061035657600080fd5b906000526020600020016000915054906101000a900473ffffffffffffffffffffffffffffffffffffffff1681565b600081600160008573ffffffffffffffffffffffffffffffffffffffff1673ffffffffffffffffffffffffffffffffffffffff168152602001908152602001600020600001546103d59190610814565b600160008573ffffffffffffffffffffffffffffffffffffffff1673ffffffffffffffffffffffffffffffffffffffff16815260200190815260200160002060000181905550600160008473ffffffffffffffffffffffffffffffffffffffff1673ffffffffffffffffffffffffffffffffffffffff16815260200190815260200160002060000154905092915050565b6000600160008373ffffffffffffffffffffffffffffffffffffffff1673ffffffffffffffffffffffffffffffffffffffff168152602001908152602001600020600001549050919050565b6040518060400160405280600073ffffffffffffffffffffffffffffffffffffffff168152602001600081525090565b600081519050919050565b600082825260208201905092915050565b6000819050602082019050919050565b600073ffffffffffffffffffffffffffffffffffffffff82169050919050565b60006105398261050e565b9050919050565b6105498161052e565b82525050565b6000819050919050565b6105628161054f565b82525050565b60408201600082015161057e6000850182610540565b5060208201516105916020850182610559565b50505050565b60006105a38383610568565b60408301905092915050565b6000602082019050919050565b60006105c7826104e2565b6105d181856104ed565b93506105dc836104fe565b8060005b8381101561060d5781516105f48882610597565b97506105ff836105af565b9250506001810190506105e0565b5085935050505092915050565b6000602082019050818103600083015261063481846105bc565b905092915050565b600080fd5b61064a8161052e565b811461065557600080fd5b50565b60008135905061066781610641565b92915050565b6000602082840312156106835761068261063c565b5b600061069184828501610658565b91505092915050565b6106a38161054f565b82525050565b60006020820190506106be600083018461069a565b92915050565b6106cd8161054f565b81146106d857600080fd5b50565b6000813590506106ea816106c4565b92915050565b6000602082840312156107065761070561063c565b5b6000610714848285016106db565b91505092915050565b6107268161052e565b82525050565b6000602082019050610741600083018461071d565b92915050565b6000806040838503121561075e5761075d61063c565b5b600061076c85828601610658565b925050602061077d858286016106db565b9150509250929050565b7f4e487b7100000000000000000000000000000000000000000000000000000000600052604160045260246000fd5b7f4e487b7100000000000000000000000000000000000000000000000000000000600052603260045260246000fd5b7f4e487b7100000000000000000000000000000000000000000000000000000000600052601160045260246000fd5b600061081f8261054f565b915061082a8361054f565b9250828201905080821115610842576108416107e5565b5b9291505056fea264697066735822122009f8d0941d431b82fe7f8fe0cb1d49b5b3c33a6b121eb3a2a5f7b691bacc50ae64736f6c63430008170033",
  "linkReferences": {},
  "deployedLinkReferences": {}
}