{
  "_format": "hh-sol-artifact-1",
  "contractName": "NFT",
  "sourceName": "contracts/NFT.sol",
  "abi": [
    {
      "inputs": [],
      "stateMutability": "nonpayable",
      "type": "constructor"
    },
    {
      "inputs": [
        {
          "internalType": "address",
          "name": "sender",
          "type": "address"
        },
        {
          "internalType": "uint256",
          "name": "tokenId",
          "type": "uint256"
        },
        {
          "internalType": "address",
          "name": "owner",
          "type": "address"
        }
      ],
      "name": "ERC721IncorrectOwner",
      "type": "error"
    },
    {
      "inputs": [
        {
          "internalType": "address",
          "name": "operator",
          "type": "address"
        },
        {
          "internalType": "uint256",
          "name": "tokenId",
          "type": "uint256"
        }
      ],
      "name": "ERC721InsufficientApproval",
      "type": "error"
    },
    {
      "inputs": [
        {
          "internalType": "address",
          "name": "approver",
          "type": "address"
        }
      ],
      "name": "ERC721InvalidApprover",
      "type": "error"
    },
    {
      "inputs": [
        {
          "internalType": "address",
          "name": "operator",
          "type": "address"
        }
      ],
      "name": "ERC721InvalidOperator",
      "type": "error"
    },
    {
      "inputs": [
        {
          "internalType": "address",
          "name": "owner",
          "type": "address"
        }
      ],
      "name": "ERC721InvalidOwner",
      "type": "error"
    },
    {
      "inputs": [
        {
          "internalType": "address",
          "name": "receiver",
          "type": "address"
        }
      ],
      "name": "ERC721InvalidReceiver",
      "type": "error"
    },
    {
      "inputs": [
        {
          "internalType": "address",
          "name": "sender",
          "type": "address"
        }
      ],
      "name": "ERC721InvalidSender",
      "type": "error"
    },
    {
      "inputs": [
        {
          "internalType": "uint256",
          "name": "tokenId",
          "type": "uint256"
        }
      ],
      "name": "ERC721NonexistentToken",
      "type": "error"
    },
    {
      "anonymous": false,
      "inputs": [
        {
          "indexed": true,
          "internalType": "address",
          "name": "owner",
          "type": "address"
        },
        {
          "indexed": true,
          "internalType": "address",
          "name": "approved",
          "type": "address"
        },
        {
          "indexed": true,
          "internalType": "uint256",
          "name": "tokenId",
          "type": "uint256"
        }
      ],
      "name": "Approval",
      "type": "event"
    },
    {
      "anonymous": false,
      "inputs": [
        {
          "indexed": true,
          "internalType": "address",
          "name": "owner",
          "type": "address"
        },
        {
          "indexed": true,
          "internalType": "address",
          "name": "operator",
          "type": "address"
        },
        {
          "indexed": false,
          "internalType": "bool",
          "name": "approved",
          "type": "bool"
        }
      ],
      "name": "ApprovalForAll",
      "type": "event"
    },
    {
      "anonymous": false,
      "inputs": [
        {
          "indexed": true,
          "internalType": "address",
          "name": "from",
          "type": "address"
        },
        {
          "indexed": true,
          "internalType": "address",
          "name": "to",
          "type": "address"
        },
        {
          "indexed": true,
          "internalType": "uint256",
          "name": "tokenId",
          "type": "uint256"
        }
      ],
      "name": "Transfer",
      "type": "event"
    },
    {
      "inputs": [
        {
          "internalType": "address",
          "name": "to",
          "type": "address"
        },
        {
          "internalType": "uint256",
          "name": "tokenId",
          "type": "uint256"
        }
      ],
      "name": "approve",
      "outputs": [],
      "stateMutability": "nonpayable",
      "type": "function"
    },
    {
      "inputs": [
        {
          "internalType": "address",
          "name": "owner",
          "type": "address"
        }
      ],
      "name": "balanceOf",
      "outputs": [
        {
          "internalType": "uint256",
          "name": "",
          "type": "uint256"
        }
      ],
      "stateMutability": "view",
      "type": "function"
    },
    {
      "inputs": [],
      "name": "currentTokenId",
      "outputs": [
        {
          "internalType": "uint256",
          "name": "",
          "type": "uint256"
        }
      ],
      "stateMutability": "view",
      "type": "function"
    },
    {
      "inputs": [
        {
          "internalType": "uint256",
          "name": "tokenId",
          "type": "uint256"
        }
      ],
      "name": "getApproved",
      "outputs": [
        {
          "internalType": "address",
          "name": "",
          "type": "address"
        }
      ],
      "stateMutability": "view",
      "type": "function"
    },
    {
      "inputs": [
        {
          "internalType": "address",
          "name": "owner",
          "type": "address"
        },
        {
          "internalType": "address",
          "name": "operator",
          "type": "address"
        }
      ],
      "name": "isApprovedForAll",
      "outputs": [
        {
          "internalType": "bool",
          "name": "",
          "type": "bool"
        }
      ],
      "stateMutability": "view",
      "type": "function"
    },
    {
      "inputs": [
        {
          "internalType": "address",
          "name": "recipient",
          "type": "address"
        }
      ],
      "name": "mint",
      "outputs": [
        {
          "internalType": "uint256",
          "name": "",
          "type": "uint256"
        }
      ],
      "stateMutability": "payable",
      "type": "function"
    },
    {
      "inputs": [],
      "name": "name",
      "outputs": [
        {
          "internalType": "string",
          "name": "",
          "type": "string"
        }
      ],
      "stateMutability": "view",
      "type": "function"
    },
    {
      "inputs": [
        {
          "internalType": "uint256",
          "name": "tokenId",
          "type": "uint256"
        }
      ],
      "name": "ownerOf",
      "outputs": [
        {
          "internalType": "address",
          "name": "",
          "type": "address"
        }
      ],
      "stateMutability": "view",
      "type": "function"
    },
    {
      "inputs": [
        {
          "internalType": "address",
          "name": "from",
          "type": "address"
        },
        {
          "internalType": "address",
          "name": "to",
          "type": "address"
        },
        {
          "internalType": "uint256",
          "name": "tokenId",
          "type": "uint256"
        }
      ],
      "name": "safeTransferFrom",
      "outputs": [],
      "stateMutability": "nonpayable",
      "type": "function"
    },
    {
      "inputs": [
        {
          "internalType": "address",
          "name": "from",
          "type": "address"
        },
        {
          "internalType": "address",
          "name": "to",
          "type": "address"
        },
        {
          "internalType": "uint256",
          "name": "tokenId",
          "type": "uint256"
        },
        {
          "internalType": "bytes",
          "name": "data",
          "type": "bytes"
        }
      ],
      "name": "safeTransferFrom",
      "outputs": [],
      "stateMutability": "nonpayable",
      "type": "function"
    },
    {
      "inputs": [
        {
          "internalType": "address",
          "name": "operator",
          "type": "address"
        },
        {
          "internalType": "bool",
          "name": "approved",
          "type": "bool"
        }
      ],
      "name": "setApprovalForAll",
      "outputs": [],
      "stateMutability": "nonpayable",
      "type": "function"
    },
    {
      "inputs": [
        {
          "internalType": "bytes4",
          "name": "interfaceId",
          "type": "bytes4"
        }
      ],
      "name": "supportsInterface",
      "outputs": [
        {
          "internalType": "bool",
          "name": "",
          "type": "bool"
        }
      ],
      "stateMutability": "view",
      "type": "function"
    },
    {
      "inputs": [],
      "name": "symbol",
      "outputs": [
        {
          "internalType": "string",
          "name": "",
          "type": "string"
        }
      ],
      "stateMutability": "view",
      "type": "function"
    },
    {
      "inputs": [
        {
          "internalType": "uint256",
          "name": "tokenId",
          "type": "uint256"
        }
      ],
      "name": "tokenURI",
      "outputs": [
        {
          "internalType": "string",
          "name": "",
          "type": "string"
        }
      ],
      "stateMutability": "view",
      "type": "function"
    },
    {
      "inputs": [
        {
          "internalType": "address",
          "name": "from",
          "type": "address"
        },
        {
          "internalType": "address",
          "name": "to",
          "type": "address"
        },
        {
          "internalType": "uint256",
          "name": "tokenId",
          "type": "uint256"
        }
      ],
      "name": "transferFrom",
      "outputs": [],
      "stateMutability": "nonpayable",
      "type": "function"
    }
  ],
  "bytecode": "0x60806040523480156200001157600080fd5b506040518060400160405280600881526020017f4e4654204e616d650000000000000000000000000000000000000000000000008152506040518060400160405280600381526020017f4e4654000000000000000000000000000000000000000000000000000000000081525081600090816200008f919062000324565b508060019081620000a1919062000324565b5050506200040b565b600081519050919050565b7f4e487b7100000000000000000000000000000000000000000000000000000000600052604160045260246000fd5b7f4e487b7100000000000000000000000000000000000000000000000000000000600052602260045260246000fd5b600060028204905060018216806200012c57607f821691505b602082108103620001425762000141620000e4565b5b50919050565b60008190508160005260206000209050919050565b60006020601f8301049050919050565b600082821b905092915050565b600060088302620001ac7fffffffffffffffffffffffffffffffffffffffffffffffffffffffffffffffff826200016d565b620001b886836200016d565b95508019841693508086168417925050509392505050565b6000819050919050565b6000819050919050565b600062000205620001ff620001f984620001d0565b620001da565b620001d0565b9050919050565b6000819050919050565b6200022183620001e4565b6200023962000230826200020c565b8484546200017a565b825550505050565b600090565b6200025062000241565b6200025d81848462000216565b505050565b5b8181101562000285576200027960008262000246565b60018101905062000263565b5050565b601f821115620002d4576200029e8162000148565b620002a9846200015d565b81016020851015620002b9578190505b620002d1620002c8856200015d565b83018262000262565b50505b505050565b600082821c905092915050565b6000620002f960001984600802620002d9565b1980831691505092915050565b6000620003148383620002e6565b9150826002028217905092915050565b6200032f82620000aa565b67ffffffffffffffff8111156200034b576200034a620000b5565b5b62000357825462000113565b6200036482828562000289565b600060209050601f8311600181146200039c576000841562000387578287015190505b62000393858262000306565b86555062000403565b601f198416620003ac8662000148565b60005b82811015620003d657848901518255600182019150602085019450602081019050620003af565b86831015620003f65784890151620003f2601f891682620002e6565b8355505b6001600288020188555050505b505050505050565b611f7f806200041b6000396000f3fe6080604052600436106100e75760003560e01c80636352211e1161008a578063a22cb46511610059578063a22cb4651461030c578063b88d4fde14610335578063c87b56dd1461035e578063e985e9c51461039b576100e7565b80636352211e146102375780636a6278421461027457806370a08231146102a457806395d89b41146102e1576100e7565b8063081812fc116100c6578063081812fc1461017f578063095ea7b3146101bc57806323b872dd146101e557806342842e0e1461020e576100e7565b80629a9b7b146100ec57806301ffc9a71461011757806306fdde0314610154575b600080fd5b3480156100f857600080fd5b506101016103d8565b60405161010e91906116ff565b60405180910390f35b34801561012357600080fd5b5061013e60048036038101906101399190611786565b6103de565b60405161014b91906117ce565b60405180910390f35b34801561016057600080fd5b506101696104c0565b6040516101769190611879565b60405180910390f35b34801561018b57600080fd5b506101a660048036038101906101a191906118c7565b610552565b6040516101b39190611935565b60405180910390f35b3480156101c857600080fd5b506101e360048036038101906101de919061197c565b61056e565b005b3480156101f157600080fd5b5061020c600480360381019061020791906119bc565b610584565b005b34801561021a57600080fd5b50610235600480360381019061023091906119bc565b610686565b005b34801561024357600080fd5b5061025e600480360381019061025991906118c7565b6106a6565b60405161026b9190611935565b60405180910390f35b61028e60048036038101906102899190611a0f565b6106b8565b60405161029b91906116ff565b60405180910390f35b3480156102b057600080fd5b506102cb60048036038101906102c69190611a0f565b6106e5565b6040516102d891906116ff565b60405180910390f35b3480156102ed57600080fd5b506102f661079f565b6040516103039190611879565b60405180910390f35b34801561031857600080fd5b50610333600480360381019061032e9190611a68565b610831565b005b34801561034157600080fd5b5061035c60048036038101906103579190611bdd565b610847565b005b34801561036a57600080fd5b50610385600480360381019061038091906118c7565b61086c565b6040516103929190611879565b60405180910390f35b3480156103a757600080fd5b506103c260048036038101906103bd9190611c60565b6108d5565b6040516103cf91906117ce565b60405180910390f35b60065481565b60007f80ac58cd000000000000000000000000000000000000000000000000000000007bffffffffffffffffffffffffffffffffffffffffffffffffffffffff1916827bffffffffffffffffffffffffffffffffffffffffffffffffffffffff191614806104a957507f5b5e139f000000000000000000000000000000000000000000000000000000007bffffffffffffffffffffffffffffffffffffffffffffffffffffffff1916827bffffffffffffffffffffffffffffffffffffffffffffffffffffffff1916145b806104b957506104b882610969565b5b9050919050565b6060600080546104cf90611ccf565b80601f01602080910402602001604051908101604052809291908181526020018280546104fb90611ccf565b80156105485780601f1061051d57610100808354040283529160200191610548565b820191906000526020600020905b81548152906001019060200180831161052b57829003601f168201915b5050505050905090565b600061055d826109d3565b5061056782610a5b565b9050919050565b610580828261057b610a98565b610aa0565b5050565b600073ffffffffffffffffffffffffffffffffffffffff168273ffffffffffffffffffffffffffffffffffffffff16036105f65760006040517f64a0ae920000000000000000000000000000000000000000000000000000000081526004016105ed9190611935565b60405180910390fd5b600061060a8383610605610a98565b610ab2565b90508373ffffffffffffffffffffffffffffffffffffffff168173ffffffffffffffffffffffffffffffffffffffff1614610680578382826040517f64283d7b00000000000000000000000000000000000000000000000000000000815260040161067793929190611d00565b60405180910390fd5b50505050565b6106a183838360405180602001604052806000815250610847565b505050565b60006106b1826109d3565b9050919050565b6000806006600081546106ca90611d66565b91905081905590506106dc8382610ccc565b80915050919050565b60008073ffffffffffffffffffffffffffffffffffffffff168273ffffffffffffffffffffffffffffffffffffffff16036107585760006040517f89c62b6400000000000000000000000000000000000000000000000000000000815260040161074f9190611935565b60405180910390fd5b600360008373ffffffffffffffffffffffffffffffffffffffff1673ffffffffffffffffffffffffffffffffffffffff168152602001908152602001600020549050919050565b6060600180546107ae90611ccf565b80601f01602080910402602001604051908101604052809291908181526020018280546107da90611ccf565b80156108275780601f106107fc57610100808354040283529160200191610827565b820191906000526020600020905b81548152906001019060200180831161080a57829003601f168201915b5050505050905090565b61084361083c610a98565b8383610cea565b5050565b610852848484610584565b61086661085d610a98565b85858585610e59565b50505050565b6060610877826109d3565b50600061088261100a565b905060008151116108a257604051806020016040528060008152506108cd565b806108ac84611021565b6040516020016108bd929190611dea565b6040516020818303038152906040525b915050919050565b6000600560008473ffffffffffffffffffffffffffffffffffffffff1673ffffffffffffffffffffffffffffffffffffffff16815260200190815260200160002060008373ffffffffffffffffffffffffffffffffffffffff1673ffffffffffffffffffffffffffffffffffffffff16815260200190815260200160002060009054906101000a900460ff16905092915050565b60007f01ffc9a7000000000000000000000000000000000000000000000000000000007bffffffffffffffffffffffffffffffffffffffffffffffffffffffff1916827bffffffffffffffffffffffffffffffffffffffffffffffffffffffff1916149050919050565b6000806109df836110ef565b9050600073ffffffffffffffffffffffffffffffffffffffff168173ffffffffffffffffffffffffffffffffffffffff1603610a5257826040517f7e273289000000000000000000000000000000000000000000000000000000008152600401610a4991906116ff565b60405180910390fd5b80915050919050565b60006004600083815260200190815260200160002060009054906101000a900473ffffffffffffffffffffffffffffffffffffffff169050919050565b600033905090565b610aad838383600161112c565b505050565b600080610abe846110ef565b9050600073ffffffffffffffffffffffffffffffffffffffff168373ffffffffffffffffffffffffffffffffffffffff1614610b0057610aff8184866112f1565b5b600073ffffffffffffffffffffffffffffffffffffffff168173ffffffffffffffffffffffffffffffffffffffff1614610b9157610b4260008560008061112c565b6001600360008373ffffffffffffffffffffffffffffffffffffffff1673ffffffffffffffffffffffffffffffffffffffff168152602001908152602001600020600082825403925050819055505b600073ffffffffffffffffffffffffffffffffffffffff168573ffffffffffffffffffffffffffffffffffffffff1614610c14576001600360008773ffffffffffffffffffffffffffffffffffffffff1673ffffffffffffffffffffffffffffffffffffffff168152602001908152602001600020600082825401925050819055505b846002600086815260200190815260200160002060006101000a81548173ffffffffffffffffffffffffffffffffffffffff021916908373ffffffffffffffffffffffffffffffffffffffff160217905550838573ffffffffffffffffffffffffffffffffffffffff168273ffffffffffffffffffffffffffffffffffffffff167fddf252ad1be2c89b69c2b068fc378daa952ba7f163c4a11628f55a4df523b3ef60405160405180910390a4809150509392505050565b610ce68282604051806020016040528060008152506113b5565b5050565b600073ffffffffffffffffffffffffffffffffffffffff168273ffffffffffffffffffffffffffffffffffffffff1603610d5b57816040517f5b08ba18000000000000000000000000000000000000000000000000000000008152600401610d529190611935565b60405180910390fd5b80600560008573ffffffffffffffffffffffffffffffffffffffff1673ffffffffffffffffffffffffffffffffffffffff16815260200190815260200160002060008473ffffffffffffffffffffffffffffffffffffffff1673ffffffffffffffffffffffffffffffffffffffff16815260200190815260200160002060006101000a81548160ff0219169083151502179055508173ffffffffffffffffffffffffffffffffffffffff168373ffffffffffffffffffffffffffffffffffffffff167f17307eab39ab6107e8899845ad3d59bd9653f200f220920489ca2b5937696c3183604051610e4c91906117ce565b60405180910390a3505050565b60008373ffffffffffffffffffffffffffffffffffffffff163b1115611003578273ffffffffffffffffffffffffffffffffffffffff1663150b7a02868685856040518563ffffffff1660e01b8152600401610eb89493929190611e63565b6020604051808303816000875af1925050508015610ef457506040513d601f19601f82011682018060405250810190610ef19190611ec4565b60015b610f78573d8060008114610f24576040519150601f19603f3d011682016040523d82523d6000602084013e610f29565b606091505b506000815103610f7057836040517f64a0ae92000000000000000000000000000000000000000000000000000000008152600401610f679190611935565b60405180910390fd5b805181602001fd5b63150b7a0260e01b7bffffffffffffffffffffffffffffffffffffffffffffffffffffffff1916817bffffffffffffffffffffffffffffffffffffffffffffffffffffffff19161461100157836040517f64a0ae92000000000000000000000000000000000000000000000000000000008152600401610ff89190611935565b60405180910390fd5b505b5050505050565b606060405180602001604052806000815250905090565b606060006001611030846113d9565b01905060008167ffffffffffffffff81111561104f5761104e611ab2565b5b6040519080825280601f01601f1916602001820160405280156110815781602001600182028036833780820191505090505b509050600082602001820190505b6001156110e4578080600190039150507f3031323334353637383961626364656600000000000000000000000000000000600a86061a8153600a85816110d8576110d7611ef1565b5b0494506000850361108f575b819350505050919050565b60006002600083815260200190815260200160002060009054906101000a900473ffffffffffffffffffffffffffffffffffffffff169050919050565b80806111655750600073ffffffffffffffffffffffffffffffffffffffff168273ffffffffffffffffffffffffffffffffffffffff1614155b15611299576000611175846109d3565b9050600073ffffffffffffffffffffffffffffffffffffffff168373ffffffffffffffffffffffffffffffffffffffff16141580156111e057508273ffffffffffffffffffffffffffffffffffffffff168173ffffffffffffffffffffffffffffffffffffffff1614155b80156111f357506111f181846108d5565b155b1561123557826040517fa9fbf51f00000000000000000000000000000000000000000000000000000000815260040161122c9190611935565b60405180910390fd5b811561129757838573ffffffffffffffffffffffffffffffffffffffff168273ffffffffffffffffffffffffffffffffffffffff167f8c5be1e5ebec7d5bd14f71427d1e84f3dd0314c0f7b2291e5b200ac8c7c3b92560405160405180910390a45b505b836004600085815260200190815260200160002060006101000a81548173ffffffffffffffffffffffffffffffffffffffff021916908373ffffffffffffffffffffffffffffffffffffffff16021790555050505050565b6112fc83838361152c565b6113b057600073ffffffffffffffffffffffffffffffffffffffff168373ffffffffffffffffffffffffffffffffffffffff160361137157806040517f7e27328900000000000000000000000000000000000000000000000000000000815260040161136891906116ff565b60405180910390fd5b81816040517f177e802f0000000000000000000000000000000000000000000000000000000081526004016113a7929190611f20565b60405180910390fd5b505050565b6113bf83836115ed565b6113d46113ca610a98565b6000858585610e59565b505050565b600080600090507a184f03e93ff9f4daa797ed6e38ed64bf6a1f0100000000000000008310611437577a184f03e93ff9f4daa797ed6e38ed64bf6a1f010000000000000000838161142d5761142c611ef1565b5b0492506040810190505b6d04ee2d6d415b85acef81000000008310611474576d04ee2d6d415b85acef8100000000838161146a57611469611ef1565b5b0492506020810190505b662386f26fc1000083106114a357662386f26fc10000838161149957611498611ef1565b5b0492506010810190505b6305f5e10083106114cc576305f5e10083816114c2576114c1611ef1565b5b0492506008810190505b61271083106114f15761271083816114e7576114e6611ef1565b5b0492506004810190505b60648310611514576064838161150a57611509611ef1565b5b0492506002810190505b600a8310611523576001810190505b80915050919050565b60008073ffffffffffffffffffffffffffffffffffffffff168373ffffffffffffffffffffffffffffffffffffffff16141580156115e457508273ffffffffffffffffffffffffffffffffffffffff168473ffffffffffffffffffffffffffffffffffffffff1614806115a557506115a484846108d5565b5b806115e357508273ffffffffffffffffffffffffffffffffffffffff166115cb83610a5b565b73ffffffffffffffffffffffffffffffffffffffff16145b5b90509392505050565b600073ffffffffffffffffffffffffffffffffffffffff168273ffffffffffffffffffffffffffffffffffffffff160361165f5760006040517f64a0ae920000000000000000000000000000000000000000000000000000000081526004016116569190611935565b60405180910390fd5b600061166d83836000610ab2565b9050600073ffffffffffffffffffffffffffffffffffffffff168173ffffffffffffffffffffffffffffffffffffffff16146116e15760006040517f73c6ac6e0000000000000000000000000000000000000000000000000000000081526004016116d89190611935565b60405180910390fd5b505050565b6000819050919050565b6116f9816116e6565b82525050565b600060208201905061171460008301846116f0565b92915050565b6000604051905090565b600080fd5b600080fd5b60007fffffffff0000000000000000000000000000000000000000000000000000000082169050919050565b6117638161172e565b811461176e57600080fd5b50565b6000813590506117808161175a565b92915050565b60006020828403121561179c5761179b611724565b5b60006117aa84828501611771565b91505092915050565b60008115159050919050565b6117c8816117b3565b82525050565b60006020820190506117e360008301846117bf565b92915050565b600081519050919050565b600082825260208201905092915050565b60005b83811015611823578082015181840152602081019050611808565b60008484015250505050565b6000601f19601f8301169050919050565b600061184b826117e9565b61185581856117f4565b9350611865818560208601611805565b61186e8161182f565b840191505092915050565b600060208201905081810360008301526118938184611840565b905092915050565b6118a4816116e6565b81146118af57600080fd5b50565b6000813590506118c18161189b565b92915050565b6000602082840312156118dd576118dc611724565b5b60006118eb848285016118b2565b91505092915050565b600073ffffffffffffffffffffffffffffffffffffffff82169050919050565b600061191f826118f4565b9050919050565b61192f81611914565b82525050565b600060208201905061194a6000830184611926565b92915050565b61195981611914565b811461196457600080fd5b50565b60008135905061197681611950565b92915050565b6000806040838503121561199357611992611724565b5b60006119a185828601611967565b92505060206119b2858286016118b2565b9150509250929050565b6000806000606084860312156119d5576119d4611724565b5b60006119e386828701611967565b93505060206119f486828701611967565b9250506040611a05868287016118b2565b9150509250925092565b600060208284031215611a2557611a24611724565b5b6000611a3384828501611967565b91505092915050565b611a45816117b3565b8114611a5057600080fd5b50565b600081359050611a6281611a3c565b92915050565b60008060408385031215611a7f57611a7e611724565b5b6000611a8d85828601611967565b9250506020611a9e85828601611a53565b9150509250929050565b600080fd5b600080fd5b7f4e487b7100000000000000000000000000000000000000000000000000000000600052604160045260246000fd5b611aea8261182f565b810181811067ffffffffffffffff82111715611b0957611b08611ab2565b5b80604052505050565b6000611b1c61171a565b9050611b288282611ae1565b919050565b600067ffffffffffffffff821115611b4857611b47611ab2565b5b611b518261182f565b9050602081019050919050565b82818337600083830152505050565b6000611b80611b7b84611b2d565b611b12565b905082815260208101848484011115611b9c57611b9b611aad565b5b611ba7848285611b5e565b509392505050565b600082601f830112611bc457611bc3611aa8565b5b8135611bd4848260208601611b6d565b91505092915050565b60008060008060808587031215611bf757611bf6611724565b5b6000611c0587828801611967565b9450506020611c1687828801611967565b9350506040611c27878288016118b2565b925050606085013567ffffffffffffffff811115611c4857611c47611729565b5b611c5487828801611baf565b91505092959194509250565b60008060408385031215611c7757611c76611724565b5b6000611c8585828601611967565b9250506020611c9685828601611967565b9150509250929050565b7f4e487b7100000000000000000000000000000000000000000000000000000000600052602260045260246000fd5b60006002820490506001821680611ce757607f821691505b602082108103611cfa57611cf9611ca0565b5b50919050565b6000606082019050611d156000830186611926565b611d2260208301856116f0565b611d2f6040830184611926565b949350505050565b7f4e487b7100000000000000000000000000000000000000000000000000000000600052601160045260246000fd5b6000611d71826116e6565b91507fffffffffffffffffffffffffffffffffffffffffffffffffffffffffffffffff8203611da357611da2611d37565b5b600182019050919050565b600081905092915050565b6000611dc4826117e9565b611dce8185611dae565b9350611dde818560208601611805565b80840191505092915050565b6000611df68285611db9565b9150611e028284611db9565b91508190509392505050565b600081519050919050565b600082825260208201905092915050565b6000611e3582611e0e565b611e3f8185611e19565b9350611e4f818560208601611805565b611e588161182f565b840191505092915050565b6000608082019050611e786000830187611926565b611e856020830186611926565b611e9260408301856116f0565b8181036060830152611ea48184611e2a565b905095945050505050565b600081519050611ebe8161175a565b92915050565b600060208284031215611eda57611ed9611724565b5b6000611ee884828501611eaf565b91505092915050565b7f4e487b7100000000000000000000000000000000000000000000000000000000600052601260045260246000fd5b6000604082019050611f356000830185611926565b611f4260208301846116f0565b939250505056fea26469706673582212205168f0228fd6bc1849da6a0368a27df0fb00718501c1dd768a65fd32fe3c691064736f6c63430008170033",
  "linkReferences": {},
  "deployedLinkReferences": {}
}